{
    "_format": "hh-sol-artifact-1",
    "contractName": "RentalEscrow",
    "sourceName": "contracts/RentalEscrow.sol",
    "abi": [
        {
            "inputs": [
                {
                    "internalType": "address payable",
                    "name": "_owner",
                    "type": "address"
                },
                {
                    "internalType": "address payable",
                    "name": "_tenant",
                    "type": "address"
                },
                {
                    "internalType": "address payable",
                    "name": "_platformOwner",
                    "type": "address"
                },
                {
                    "internalType": "uint256",
                    "name": "_rentAmount",
                    "type": "uint256"
                },
                {
                    "internalType": "uint256",
                    "name": "_leaseStart",
                    "type": "uint256"
                },
                {
                    "internalType": "uint256",
                    "name": "_leaseEnd",
                    "type": "uint256"
                }
            ],
            "stateMutability": "nonpayable",
            "type": "constructor"
        },
        {
            "anonymous": false,
            "inputs": [
                {
                    "indexed": true,
                    "internalType": "address",
                    "name": "by",
                    "type": "address"
                }
            ],
            "name": "Cancelled",
            "type": "event"
        },
        {
            "anonymous": false,
            "inputs": [
                {
                    "indexed": true,
                    "internalType": "address",
                    "name": "owner",
                    "type": "address"
                },
                {
                    "indexed": false,
                    "internalType": "uint256",
                    "name": "ownerAmount",
                    "type": "uint256"
                },
                {
                    "indexed": false,
                    "internalType": "uint256",
                    "name": "platformAmount",
                    "type": "uint256"
                }
            ],
            "name": "Completed",
            "type": "event"
        },
        {
            "anonymous": false,
            "inputs": [
                {
                    "indexed": true,
                    "internalType": "address",
                    "name": "initiator",
                    "type": "address"
                },
                {
                    "indexed": false,
                    "internalType": "string",
                    "name": "reason",
                    "type": "string"
                }
            ],
            "name": "Dispute",
            "type": "event"
        },
        {
            "anonymous": false,
            "inputs": [
                {
                    "indexed": true,
                    "internalType": "address",
                    "name": "tenant",
                    "type": "address"
                },
                {
                    "indexed": false,
                    "internalType": "uint256",
                    "name": "totalAmount",
                    "type": "uint256"
                },
                {
                    "indexed": false,
                    "internalType": "uint256",
                    "name": "platformFee",
                    "type": "uint256"
                },
                {
                    "indexed": false,
                    "internalType": "uint256",
                    "name": "ownerAmount",
                    "type": "uint256"
                }
            ],
            "name": "Funded",
            "type": "event"
        },
        {
            "anonymous": false,
            "inputs": [
                {
                    "indexed": false,
                    "internalType": "uint256",
                    "name": "startDate",
                    "type": "uint256"
                }
            ],
            "name": "LeaseStarted",
            "type": "event"
        },
        {
            "anonymous": false,
            "inputs": [
                {
                    "indexed": true,
                    "internalType": "address",
                    "name": "tenant",
                    "type": "address"
                },
                {
                    "indexed": false,
                    "internalType": "uint256",
                    "name": "penaltyAmount",
                    "type": "uint256"
                }
            ],
            "name": "Penalized",
            "type": "event"
        },
        {
            "anonymous": false,
            "inputs": [
                {
                    "indexed": false,
                    "internalType": "uint256",
                    "name": "newFee",
                    "type": "uint256"
                }
            ],
            "name": "PlatformFeeUpdated",
            "type": "event"
        },
        {
            "anonymous": false,
            "inputs": [
                {
                    "indexed": true,
                    "internalType": "address",
                    "name": "tenant",
                    "type": "address"
                },
                {
                    "indexed": false,
                    "internalType": "uint256",
                    "name": "amount",
                    "type": "uint256"
                }
            ],
            "name": "Refunded",
            "type": "event"
        },
        {
            "inputs": [],
            "name": "cancel",
            "outputs": [],
            "stateMutability": "nonpayable",
            "type": "function"
        },
        {
            "inputs": [],
            "name": "complete",
            "outputs": [],
            "stateMutability": "nonpayable",
            "type": "function"
        },
        {
            "inputs": [],
            "name": "fund",
            "outputs": [],
            "stateMutability": "payable",
            "type": "function"
        },
        {
            "inputs": [],
            "name": "getBalance",
            "outputs": [
                {
                    "internalType": "uint256",
                    "name": "",
                    "type": "uint256"
                }
            ],
            "stateMutability": "view",
            "type": "function"
        },
        {
            "inputs": [],
            "name": "leaseEnd",
            "outputs": [
                {
                    "internalType": "uint256",
                    "name": "",
                    "type": "uint256"
                }
            ],
            "stateMutability": "view",
            "type": "function"
        },
        {
            "inputs": [],
            "name": "leaseStart",
            "outputs": [
                {
                    "internalType": "uint256",
                    "name": "",
                    "type": "uint256"
                }
            ],
            "stateMutability": "view",
            "type": "function"
        },
        {
            "inputs": [],
            "name": "owner",
            "outputs": [
                {
                    "internalType": "address payable",
                    "name": "",
                    "type": "address"
                }
            ],
            "stateMutability": "view",
            "type": "function"
        },
        {
            "inputs": [],
            "name": "platformFeePercent",
            "outputs": [
                {
                    "internalType": "uint256",
                    "name": "",
                    "type": "uint256"
                }
            ],
            "stateMutability": "view",
            "type": "function"
        },
        {
            "inputs": [],
            "name": "platformOwner",
            "outputs": [
                {
                    "internalType": "address payable",
                    "name": "",
                    "type": "address"
                }
            ],
            "stateMutability": "view",
            "type": "function"
        },
        {
            "inputs": [
                {
                    "internalType": "address",
                    "name": "_to",
                    "type": "address"
                },
                {
                    "internalType": "uint256",
                    "name": "_amount",
                    "type": "uint256"
                },
                {
                    "internalType": "string",
                    "name": "_reason",
                    "type": "string"
                }
            ],
            "name": "refundDispute",
            "outputs": [],
            "stateMutability": "nonpayable",
            "type": "function"
        },
        {
            "inputs": [],
            "name": "rentAmount",
            "outputs": [
                {
                    "internalType": "uint256",
                    "name": "",
                    "type": "uint256"
                }
            ],
            "stateMutability": "view",
            "type": "function"
        },
        {
            "inputs": [
                {
                    "internalType": "uint256",
                    "name": "_newFee",
                    "type": "uint256"
                }
            ],
            "name": "setPlatformFeePercent",
            "outputs": [],
            "stateMutability": "nonpayable",
            "type": "function"
        },
        {
            "inputs": [],
            "name": "startLease",
            "outputs": [],
            "stateMutability": "nonpayable",
            "type": "function"
        },
        {
            "inputs": [],
            "name": "state",
            "outputs": [
                {
                    "internalType": "enum RentalEscrow.State",
                    "name": "",
                    "type": "uint8"
                }
            ],
            "stateMutability": "view",
            "type": "function"
        },
        {
            "inputs": [],
            "name": "tenant",
            "outputs": [
                {
                    "internalType": "address payable",
                    "name": "",
                    "type": "address"
                }
            ],
            "stateMutability": "view",
            "type": "function"
        }
    ],
    "bytecode": "0x608060405260056006553480156200001657600080fd5b50604051620024a3380380620024a383398181016040528101906200003c919062000252565b81811162000081576040517f08c379a0000000000000000000000000000000000000000000000000000000008152600401620000789062000375565b60405180910390fd5b85600060016101000a81548173ffffffffffffffffffffffffffffffffffffffff021916908373ffffffffffffffffffffffffffffffffffffffff16021790555084600160006101000a81548173ffffffffffffffffffffffffffffffffffffffff021916908373ffffffffffffffffffffffffffffffffffffffff16021790555083600260006101000a81548173ffffffffffffffffffffffffffffffffffffffff021916908373ffffffffffffffffffffffffffffffffffffffff16021790555082600381905550816004819055508060058190555060008060006101000a81548160ff0219169083600481111562000181576200018062000397565b5b02179055506000600760006101000a81548160ff021916908315150217905550505050505050620003c6565b600080fd5b600073ffffffffffffffffffffffffffffffffffffffff82169050919050565b6000620001df82620001b2565b9050919050565b620001f181620001d2565b8114620001fd57600080fd5b50565b6000815190506200021181620001e6565b92915050565b6000819050919050565b6200022c8162000217565b81146200023857600080fd5b50565b6000815190506200024c8162000221565b92915050565b60008060008060008060c08789031215620002725762000271620001ad565b5b60006200028289828a0162000200565b96505060206200029589828a0162000200565b9550506040620002a889828a0162000200565b9450506060620002bb89828a016200023b565b9350506080620002ce89828a016200023b565b92505060a0620002e189828a016200023b565b9150509295509295509295565b600082825260208201905092915050565b7f6c65617365456e6420646f69742065747265207375706572696575722061206c60008201527f6561736553746172740000000000000000000000000000000000000000000000602082015250565b60006200035d602983620002ee565b91506200036a82620002ff565b604082019050919050565b6000602082019050818103600083015262000390816200034e565b9050919050565b7f4e487b7100000000000000000000000000000000000000000000000000000000600052602160045260246000fd5b6120cd80620003d66000396000f3fe6080604052600436106100e85760003560e01c80638da5cb5b1161008a578063cab230d211610059578063cab230d21461027d578063ea8a1af0146102a6578063f8ef1e13146102bd578063ffd5abf4146102e8576100e8565b80638da5cb5b146101f2578063adf077911461021d578063b60d428814610248578063c19d93fb14610252576100e8565b80634df8ccb1116100c65780634df8ccb11461015a578063522e11771461018557806387822b621461019c5780638c639a85146101c7576100e8565b80630cc63ea4146100ed57806312065fe014610118578063394afa9714610143575b600080fd5b3480156100f957600080fd5b50610102610311565b60405161010f91906112d3565b60405180910390f35b34801561012457600080fd5b5061012d610317565b60405161013a91906112d3565b60405180910390f35b34801561014f57600080fd5b5061015861031f565b005b34801561016657600080fd5b5061016f6104cb565b60405161017c919061132f565b60405180910390f35b34801561019157600080fd5b5061019a6104f1565b005b3480156101a857600080fd5b506101b161075f565b6040516101be91906112d3565b60405180910390f35b3480156101d357600080fd5b506101dc610765565b6040516101e991906112d3565b60405180910390f35b3480156101fe57600080fd5b5061020761076b565b604051610214919061132f565b60405180910390f35b34801561022957600080fd5b50610232610791565b60405161023f919061132f565b60405180910390f35b6102506107b7565b005b34801561025e57600080fd5b50610267610b8c565b60405161027491906113c1565b60405180910390f35b34801561028957600080fd5b506102a4600480360381019061029f919061141c565b610b9d565b005b3480156102b257600080fd5b506102bb610cb2565b005b3480156102c957600080fd5b506102d261102a565b6040516102df91906112d3565b60405180910390f35b3480156102f457600080fd5b5061030f600480360381019061030a91906115cd565b611030565b005b60055481565b600047905090565b600060019054906101000a900473ffffffffffffffffffffffffffffffffffffffff1673ffffffffffffffffffffffffffffffffffffffff163373ffffffffffffffffffffffffffffffffffffffff16146103af576040517f08c379a00000000000000000000000000000000000000000000000000000000081526004016103a690611699565b60405180910390fd5b600160048111156103c3576103c261134a565b5b60008054906101000a900460ff1660048111156103e3576103e261134a565b5b14610423576040517f08c379a000000000000000000000000000000000000000000000000000000000815260040161041a9061172b565b60405180910390fd5b600454421015610468576040517f08c379a000000000000000000000000000000000000000000000000000000000815260040161045f906117bd565b60405180910390fd5b60026000806101000a81548160ff0219169083600481111561048d5761048c61134a565b5b02179055507f1740a0735c8e22c42c4926f5ff6d562b2ceb197ac296ffd2d4ad0eee74554b71426040516104c191906112d3565b60405180910390a1565b600260009054906101000a900473ffffffffffffffffffffffffffffffffffffffff1681565b600060019054906101000a900473ffffffffffffffffffffffffffffffffffffffff1673ffffffffffffffffffffffffffffffffffffffff163373ffffffffffffffffffffffffffffffffffffffff1614610581576040517f08c379a000000000000000000000000000000000000000000000000000000000815260040161057890611699565b60405180910390fd5b600760009054906101000a900460ff16156105d1576040517f08c379a00000000000000000000000000000000000000000000000000000000081526004016105c890611829565b60405180910390fd5b6001600760006101000a81548160ff02191690831515021790555060026004811115610600576105ff61134a565b5b60008054906101000a900460ff1660048111156106205761061f61134a565b5b14610660576040517f08c379a000000000000000000000000000000000000000000000000000000000815260040161065790611895565b60405180910390fd5b6005544210156106a5576040517f08c379a000000000000000000000000000000000000000000000000000000000815260040161069c90611927565b60405180910390fd5b60036000806101000a81548160ff021916908360048111156106ca576106c961134a565b5b0217905550600060019054906101000a900473ffffffffffffffffffffffffffffffffffffffff1673ffffffffffffffffffffffffffffffffffffffff167f5f364ec8cbeb22a7121d682d8fbbf96032bfc28c76d26628d8562dfbb285b50a60008060405161073a92919061198c565b60405180910390a26000600760006101000a81548160ff021916908315150217905550565b60045481565b60065481565b600060019054906101000a900473ffffffffffffffffffffffffffffffffffffffff1681565b600160009054906101000a900473ffffffffffffffffffffffffffffffffffffffff1681565b600160009054906101000a900473ffffffffffffffffffffffffffffffffffffffff1673ffffffffffffffffffffffffffffffffffffffff163373ffffffffffffffffffffffffffffffffffffffff1614610847576040517f08c379a000000000000000000000000000000000000000000000000000000000815260040161083e90611a01565b60405180910390fd5b600760009054906101000a900460ff1615610897576040517f08c379a000000000000000000000000000000000000000000000000000000000815260040161088e90611829565b60405180910390fd5b6001600760006101000a81548160ff021916908315150217905550600060048111156108c6576108c561134a565b5b60008054906101000a900460ff1660048111156108e6576108e561134a565b5b14610926576040517f08c379a000000000000000000000000000000000000000000000000000000000815260040161091d90611a93565b60405180910390fd5b60006064600654346109389190611ae2565b6109429190611b53565b9050600081346109529190611b84565b90506000600260009054906101000a900473ffffffffffffffffffffffffffffffffffffffff1673ffffffffffffffffffffffffffffffffffffffff168360405161099c90611be9565b60006040518083038185875af1925050503d80600081146109d9576040519150601f19603f3d011682016040523d82523d6000602084013e6109de565b606091505b5050905080610a22576040517f08c379a0000000000000000000000000000000000000000000000000000000008152600401610a1990611c70565b60405180910390fd5b60008060019054906101000a900473ffffffffffffffffffffffffffffffffffffffff1673ffffffffffffffffffffffffffffffffffffffff1683604051610a6990611be9565b60006040518083038185875af1925050503d8060008114610aa6576040519150601f19603f3d011682016040523d82523d6000602084013e610aab565b606091505b5050905080610aef576040517f08c379a0000000000000000000000000000000000000000000000000000000008152600401610ae690611cdc565b60405180910390fd5b60016000806101000a81548160ff02191690836004811115610b1457610b1361134a565b5b02179055503373ffffffffffffffffffffffffffffffffffffffff167f26b27e83d0b82c44eb17d6f11776a8c600332d2ed7d9febfe585848bcfadf52d348686604051610b6393929190611cfc565b60405180910390a2505050506000600760006101000a81548160ff021916908315150217905550565b60008054906101000a900460ff1681565b600260009054906101000a900473ffffffffffffffffffffffffffffffffffffffff1673ffffffffffffffffffffffffffffffffffffffff163373ffffffffffffffffffffffffffffffffffffffff1614610c2d576040517f08c379a0000000000000000000000000000000000000000000000000000000008152600401610c2490611da5565b60405180910390fd5b6064811115610c71576040517f08c379a0000000000000000000000000000000000000000000000000000000008152600401610c6890611e11565b60405180910390fd5b806006819055507f45610d581145924dd7090a5017e5f2b1d6f42213bb2e95707ff86846bbfcb1ca81604051610ca791906112d3565b60405180910390a150565b600760009054906101000a900460ff1615610d02576040517f08c379a0000000000000000000000000000000000000000000000000000000008152600401610cf990611829565b60405180910390fd5b6001600760006101000a81548160ff02191690831515021790555060006004811115610d3157610d3061134a565b5b60008054906101000a900460ff166004811115610d5157610d5061134a565b5b1480610d8e575060016004811115610d6c57610d6b61134a565b5b60008054906101000a900460ff166004811115610d8c57610d8b61134a565b5b145b610dcd576040517f08c379a0000000000000000000000000000000000000000000000000000000008152600401610dc490611e7d565b60405180910390fd5b60016004811115610de157610de061134a565b5b60008054906101000a900460ff166004811115610e0157610e0061134a565b5b148015610e5b5750600160009054906101000a900473ffffffffffffffffffffffffffffffffffffffff1673ffffffffffffffffffffffffffffffffffffffff163373ffffffffffffffffffffffffffffffffffffffff16145b15610fa0576000600160009054906101000a900473ffffffffffffffffffffffffffffffffffffffff1673ffffffffffffffffffffffffffffffffffffffff1647604051610ea890611be9565b60006040518083038185875af1925050503d8060008114610ee5576040519150601f19603f3d011682016040523d82523d6000602084013e610eea565b606091505b5050905080610f2e576040517f08c379a0000000000000000000000000000000000000000000000000000000008152600401610f2590611ee9565b60405180910390fd5b600160009054906101000a900473ffffffffffffffffffffffffffffffffffffffff1673ffffffffffffffffffffffffffffffffffffffff167fd7dee2702d63ad89917b6a4da9981c90c4d24f8c2bdfd64c604ecae57d8d065147604051610f9691906112d3565b60405180910390a2505b60046000806101000a81548160ff02191690836004811115610fc557610fc461134a565b5b02179055503373ffffffffffffffffffffffffffffffffffffffff167f398bd6b21ae4164ec322fb0eb8c2eb6277f36fd41903fbbed594dfe12559128160405160405180910390a26000600760006101000a81548160ff021916908315150217905550565b60035481565b600060019054906101000a900473ffffffffffffffffffffffffffffffffffffffff1673ffffffffffffffffffffffffffffffffffffffff163373ffffffffffffffffffffffffffffffffffffffff16146110c0576040517f08c379a00000000000000000000000000000000000000000000000000000000081526004016110b790611699565b60405180910390fd5b600760009054906101000a900460ff1615611110576040517f08c379a000000000000000000000000000000000000000000000000000000000815260040161110790611829565b60405180910390fd5b6001600760006101000a81548160ff0219169083151502179055506002600481111561113f5761113e61134a565b5b60008054906101000a900460ff16600481111561115f5761115e61134a565b5b1461119f576040517f08c379a000000000000000000000000000000000000000000000000000000000815260040161119690611f7b565b60405180910390fd5b60008373ffffffffffffffffffffffffffffffffffffffff16836040516111c590611be9565b60006040518083038185875af1925050503d8060008114611202576040519150601f19603f3d011682016040523d82523d6000602084013e611207565b606091505b505090508061124b576040517f08c379a000000000000000000000000000000000000000000000000000000000815260040161124290611fe7565b60405180910390fd5b3373ffffffffffffffffffffffffffffffffffffffff167f2fd99c94baa5d085afe9e07877c700ab7ca2b23470d1ed49223d6b118145813a836040516112919190612075565b60405180910390a2506000600760006101000a81548160ff021916908315150217905550505050565b6000819050919050565b6112cd816112ba565b82525050565b60006020820190506112e860008301846112c4565b92915050565b600073ffffffffffffffffffffffffffffffffffffffff82169050919050565b6000611319826112ee565b9050919050565b6113298161130e565b82525050565b60006020820190506113446000830184611320565b92915050565b7f4e487b7100000000000000000000000000000000000000000000000000000000600052602160045260246000fd5b6005811061138a5761138961134a565b5b50565b600081905061139b82611379565b919050565b60006113ab8261138d565b9050919050565b6113bb816113a0565b82525050565b60006020820190506113d660008301846113b2565b92915050565b6000604051905090565b600080fd5b600080fd5b6113f9816112ba565b811461140457600080fd5b50565b600081359050611416816113f0565b92915050565b600060208284031215611432576114316113e6565b5b600061144084828501611407565b91505092915050565b6000611454826112ee565b9050919050565b61146481611449565b811461146f57600080fd5b50565b6000813590506114818161145b565b92915050565b600080fd5b600080fd5b6000601f19601f8301169050919050565b7f4e487b7100000000000000000000000000000000000000000000000000000000600052604160045260246000fd5b6114da82611491565b810181811067ffffffffffffffff821117156114f9576114f86114a2565b5b80604052505050565b600061150c6113dc565b905061151882826114d1565b919050565b600067ffffffffffffffff821115611538576115376114a2565b5b61154182611491565b9050602081019050919050565b82818337600083830152505050565b600061157061156b8461151d565b611502565b90508281526020810184848401111561158c5761158b61148c565b5b61159784828561154e565b509392505050565b600082601f8301126115b4576115b3611487565b5b81356115c484826020860161155d565b91505092915050565b6000806000606084860312156115e6576115e56113e6565b5b60006115f486828701611472565b935050602061160586828701611407565b925050604084013567ffffffffffffffff811115611626576116256113eb565b5b6116328682870161159f565b9150509250925092565b600082825260208201905092915050565b7f5365756c206c652070726f707269657461697265000000000000000000000000600082015250565b600061168360148361163c565b915061168e8261164d565b602082019050919050565b600060208201905081810360008301526116b281611676565b9050919050565b7f4c6520636f6e7472617420646f697420657472652066696e616e63652061766160008201527f6e7420646520636f6d6d656e6365720000000000000000000000000000000000602082015250565b6000611715602f8361163c565b9150611720826116b9565b604082019050919050565b6000602082019050818103600083015261174481611708565b9050919050565b7f4c612064617465206465206465627574206e276573742070617320656e636f7260008201527f652061747465696e746500000000000000000000000000000000000000000000602082015250565b60006117a7602a8361163c565b91506117b28261174b565b604082019050919050565b600060208201905081810360008301526117d68161179a565b9050919050565b7f5265656e7472616e637920646574656374650000000000000000000000000000600082015250565b600061181360128361163c565b915061181e826117dd565b602082019050919050565b6000602082019050818103600083015261184281611806565b9050919050565b7f4c61206c6f636174696f6e20646f697420657472652061637469766500000000600082015250565b600061187f601c8361163c565b915061188a82611849565b602082019050919050565b600060208201905081810360008301526118ae81611872565b9050919050565b7f4c6120646174652064652066696e206e276573742070617320656e636f72652060008201527f61747465696e7465000000000000000000000000000000000000000000000000602082015250565b600061191160288361163c565b915061191c826118b5565b604082019050919050565b6000602082019050818103600083015261194081611904565b9050919050565b6000819050919050565b6000819050919050565b600061197661197161196c84611947565b611951565b6112ba565b9050919050565b6119868161195b565b82525050565b60006040820190506119a1600083018561197d565b6119ae602083018461197d565b9392505050565b7f5365756c206c65206c6f63617461697265000000000000000000000000000000600082015250565b60006119eb60118361163c565b91506119f6826119b5565b602082019050919050565b60006020820190508181036000830152611a1a816119de565b9050919050565b7f506169656d656e742064656a61206566666563747565206f75206e6f6e20617560008201527f746f726973650000000000000000000000000000000000000000000000000000602082015250565b6000611a7d60268361163c565b9150611a8882611a21565b604082019050919050565b60006020820190508181036000830152611aac81611a70565b9050919050565b7f4e487b7100000000000000000000000000000000000000000000000000000000600052601160045260246000fd5b6000611aed826112ba565b9150611af8836112ba565b9250828202611b06816112ba565b91508282048414831517611b1d57611b1c611ab3565b5b5092915050565b7f4e487b7100000000000000000000000000000000000000000000000000000000600052601260045260246000fd5b6000611b5e826112ba565b9150611b69836112ba565b925082611b7957611b78611b24565b5b828204905092915050565b6000611b8f826112ba565b9150611b9a836112ba565b9250828203905081811115611bb257611bb1611ab3565b5b92915050565b600081905092915050565b50565b6000611bd3600083611bb8565b9150611bde82611bc3565b600082019050919050565b6000611bf482611bc6565b9150819050919050565b7f5472616e736665727420636f6d6d697373696f6e20706c617465666f726d652060008201527f6563686f75650000000000000000000000000000000000000000000000000000602082015250565b6000611c5a60268361163c565b9150611c6582611bfe565b604082019050919050565b60006020820190508181036000830152611c8981611c4d565b9050919050565b7f5472616e73666572742070726f707269657461697265206563686f7565000000600082015250565b6000611cc6601d8361163c565b9150611cd182611c90565b602082019050919050565b60006020820190508181036000830152611cf581611cb9565b9050919050565b6000606082019050611d1160008301866112c4565b611d1e60208301856112c4565b611d2b60408301846112c4565b949350505050565b7f5365756c206c652070726f707269657461697265206465206c6120706c61746560008201527f666f726d65000000000000000000000000000000000000000000000000000000602082015250565b6000611d8f60258361163c565b9150611d9a82611d33565b604082019050919050565b60006020820190508181036000830152611dbe81611d82565b9050919050565b7f506f757263656e7461676520696e76616c696465000000000000000000000000600082015250565b6000611dfb60148361163c565b9150611e0682611dc5565b602082019050919050565b60006020820190508181036000830152611e2a81611dee565b9050919050565b7f416e6e756c6174696f6e20696d706f737369626c652061206365207374616465600082015250565b6000611e6760208361163c565b9150611e7282611e31565b602082019050919050565b60006020820190508181036000830152611e9681611e5a565b9050919050565b7f52656d626f757273656d656e74206563686f7565000000000000000000000000600082015250565b6000611ed360148361163c565b9150611ede82611e9d565b602082019050919050565b60006020820190508181036000830152611f0281611ec6565b9050919050565b7f4c697469676520706f737369626c65207365756c656d656e742070656e64616e60008201527f74206c61206c6f636174696f6e00000000000000000000000000000000000000602082015250565b6000611f65602d8361163c565b9150611f7082611f09565b604082019050919050565b60006020820190508181036000830152611f9481611f58565b9050919050565b7f5472616e7366657274206563686f756500000000000000000000000000000000600082015250565b6000611fd160108361163c565b9150611fdc82611f9b565b602082019050919050565b6000602082019050818103600083015261200081611fc4565b9050919050565b600081519050919050565b60005b83811015612030578082015181840152602081019050612015565b60008484015250505050565b600061204782612007565b612051818561163c565b9350612061818560208601612012565b61206a81611491565b840191505092915050565b6000602082019050818103600083015261208f818461203c565b90509291505056fea26469706673582212200e5b5581e438db316fff80fa1f4cfc6e4f32103b20a9b90ddc09d9218c45e2ef64736f6c63430008140033",
    "linkReferences": {},
    "deployedLinkReferences": {}
}